{
	"contracts/Variables.sol": {
		"Variables": {
			"abi": [
				{
					"inputs": [],
					"name": "myFunc",
					"outputs": [
						{
							"internalType": "uint8",
							"name": "",
							"type": "uint8"
						},
						{
							"internalType": "bool",
							"name": "",
							"type": "bool"
						},
						{
							"internalType": "address",
							"name": "",
							"type": "address"
						}
					],
					"stateMutability": "view",
					"type": "function"
				}
			],
			"devdoc": {
				"kind": "dev",
				"methods": {},
				"version": 1
			},
			"evm": {
				"assembly": "    /* \"contracts/Variables.sol\":61:414  contract Variables{... */\n  mstore(0x40, 0x80)\n    /* \"contracts/Variables.sol\":101:103  20 */\n  0x14\n    /* \"contracts/Variables.sol\":86:103  uint8 number = 20 */\n  0x00\n  dup1\n  0x0100\n  exp\n  dup2\n  sload\n  dup2\n  0xff\n  mul\n  not\n  and\n  swap1\n  dup4\n  0xff\n  and\n  mul\n  or\n  swap1\n  sstore\n  pop\n    /* \"contracts/Variables.sol\":124:128  true */\n  0x01\n    /* \"contracts/Variables.sol\":110:128  bool paused = true */\n  0x00\n  exp(0x0100, 0x01)\n  dup2\n  sload\n  dup2\n  0xff\n  mul\n  not\n  and\n  swap1\n  dup4\n  iszero\n  iszero\n  mul\n  or\n  swap1\n  sstore\n  pop\n    /* \"contracts/Variables.sol\":147:162  block.timestamp */\n  timestamp\n    /* \"contracts/Variables.sol\":135:162  uint time = block.timestamp */\n  0x01\n  sstore\n    /* \"contracts/Variables.sol\":61:414  contract Variables{... */\n  callvalue\n  dup1\n  iszero\n  tag_1\n  jumpi\n  0x00\n  dup1\n  revert\ntag_1:\n  pop\n  dataSize(sub_0)\n  dup1\n  dataOffset(sub_0)\n  0x00\n  codecopy\n  0x00\n  return\nstop\n\nsub_0: assembly {\n        /* \"contracts/Variables.sol\":61:414  contract Variables{... */\n      mstore(0x40, 0x80)\n      callvalue\n      dup1\n      iszero\n      tag_1\n      jumpi\n      0x00\n      dup1\n      revert\n    tag_1:\n      pop\n      jumpi(tag_2, lt(calldatasize, 0x04))\n      shr(0xe0, calldataload(0x00))\n      dup1\n      0x7eed0172\n      eq\n      tag_3\n      jumpi\n    tag_2:\n      0x00\n      dup1\n      revert\n        /* \"contracts/Variables.sol\":171:411  function myFunc() external view returns(uint8, bool, address){... */\n    tag_3:\n      tag_4\n      tag_5\n      jump\t// in\n    tag_4:\n      mload(0x40)\n      tag_6\n      swap4\n      swap3\n      swap2\n      swap1\n      tag_7\n      jump\t// in\n    tag_6:\n      mload(0x40)\n      dup1\n      swap2\n      sub\n      swap1\n      return\n    tag_5:\n        /* \"contracts/Variables.sol\":211:216  uint8 */\n      0x00\n        /* \"contracts/Variables.sol\":218:222  bool */\n      dup1\n        /* \"contracts/Variables.sol\":224:231  address */\n      0x00\n        /* \"contracts/Variables.sol\":243:262  uint8 myLocalNumber */\n      dup1\n        /* \"contracts/Variables.sol\":265:267  20 */\n      0x14\n        /* \"contracts/Variables.sol\":243:267  uint8 myLocalNumber = 20 */\n      swap1\n      pop\n        /* \"contracts/Variables.sol\":278:294  bool localPaused */\n      0x00\n        /* \"contracts/Variables.sol\":313:330  address myAddress */\n      dup1\n        /* \"contracts/Variables.sol\":333:343  msg.sender */\n      caller\n        /* \"contracts/Variables.sol\":313:343  address myAddress = msg.sender */\n      swap1\n      pop\n        /* \"contracts/Variables.sol\":364:377  myLocalNumber */\n      dup3\n        /* \"contracts/Variables.sol\":379:390  localPaused */\n      dup3\n        /* \"contracts/Variables.sol\":392:401  myAddress */\n      dup3\n        /* \"contracts/Variables.sol\":356:402  return (myLocalNumber, localPaused, myAddress) */\n      swap6\n      pop\n      swap6\n      pop\n      swap6\n      pop\n      pop\n      pop\n      pop\n        /* \"contracts/Variables.sol\":171:411  function myFunc() external view returns(uint8, bool, address){... */\n      swap1\n      swap2\n      swap3\n      jump\t// out\n        /* \"#utility.yul\":7:93   */\n    tag_9:\n        /* \"#utility.yul\":42:49   */\n      0x00\n        /* \"#utility.yul\":82:86   */\n      0xff\n        /* \"#utility.yul\":75:80   */\n      dup3\n        /* \"#utility.yul\":71:87   */\n      and\n        /* \"#utility.yul\":60:87   */\n      swap1\n      pop\n        /* \"#utility.yul\":7:93   */\n      swap2\n      swap1\n      pop\n      jump\t// out\n        /* \"#utility.yul\":99:211   */\n    tag_10:\n        /* \"#utility.yul\":182:204   */\n      tag_19\n        /* \"#utility.yul\":198:203   */\n      dup2\n        /* \"#utility.yul\":182:204   */\n      tag_9\n      jump\t// in\n    tag_19:\n        /* \"#utility.yul\":177:180   */\n      dup3\n        /* \"#utility.yul\":170:205   */\n      mstore\n        /* \"#utility.yul\":99:211   */\n      pop\n      pop\n      jump\t// out\n        /* \"#utility.yul\":217:307   */\n    tag_11:\n        /* \"#utility.yul\":251:258   */\n      0x00\n        /* \"#utility.yul\":294:299   */\n      dup2\n        /* \"#utility.yul\":287:300   */\n      iszero\n        /* \"#utility.yul\":280:301   */\n      iszero\n        /* \"#utility.yul\":269:301   */\n      swap1\n      pop\n        /* \"#utility.yul\":217:307   */\n      swap2\n      swap1\n      pop\n      jump\t// out\n        /* \"#utility.yul\":313:422   */\n    tag_12:\n        /* \"#utility.yul\":394:415   */\n      tag_22\n        /* \"#utility.yul\":409:414   */\n      dup2\n        /* \"#utility.yul\":394:415   */\n      tag_11\n      jump\t// in\n    tag_22:\n        /* \"#utility.yul\":389:392   */\n      dup3\n        /* \"#utility.yul\":382:416   */\n      mstore\n        /* \"#utility.yul\":313:422   */\n      pop\n      pop\n      jump\t// out\n        /* \"#utility.yul\":428:554   */\n    tag_13:\n        /* \"#utility.yul\":465:472   */\n      0x00\n        /* \"#utility.yul\":505:547   */\n      0xffffffffffffffffffffffffffffffffffffffff\n        /* \"#utility.yul\":498:503   */\n      dup3\n        /* \"#utility.yul\":494:548   */\n      and\n        /* \"#utility.yul\":483:548   */\n      swap1\n      pop\n        /* \"#utility.yul\":428:554   */\n      swap2\n      swap1\n      pop\n      jump\t// out\n        /* \"#utility.yul\":560:656   */\n    tag_14:\n        /* \"#utility.yul\":597:604   */\n      0x00\n        /* \"#utility.yul\":626:650   */\n      tag_25\n        /* \"#utility.yul\":644:649   */\n      dup3\n        /* \"#utility.yul\":626:650   */\n      tag_13\n      jump\t// in\n    tag_25:\n        /* \"#utility.yul\":615:650   */\n      swap1\n      pop\n        /* \"#utility.yul\":560:656   */\n      swap2\n      swap1\n      pop\n      jump\t// out\n        /* \"#utility.yul\":662:780   */\n    tag_15:\n        /* \"#utility.yul\":749:773   */\n      tag_27\n        /* \"#utility.yul\":767:772   */\n      dup2\n        /* \"#utility.yul\":749:773   */\n      tag_14\n      jump\t// in\n    tag_27:\n        /* \"#utility.yul\":744:747   */\n      dup3\n        /* \"#utility.yul\":737:774   */\n      mstore\n        /* \"#utility.yul\":662:780   */\n      pop\n      pop\n      jump\t// out\n        /* \"#utility.yul\":786:1208   */\n    tag_7:\n        /* \"#utility.yul\":925:929   */\n      0x00\n        /* \"#utility.yul\":963:965   */\n      0x60\n        /* \"#utility.yul\":952:961   */\n      dup3\n        /* \"#utility.yul\":948:966   */\n      add\n        /* \"#utility.yul\":940:966   */\n      swap1\n      pop\n        /* \"#utility.yul\":976:1043   */\n      tag_29\n        /* \"#utility.yul\":1040:1041   */\n      0x00\n        /* \"#utility.yul\":1029:1038   */\n      dup4\n        /* \"#utility.yul\":1025:1042   */\n      add\n        /* \"#utility.yul\":1016:1022   */\n      dup7\n        /* \"#utility.yul\":976:1043   */\n      tag_10\n      jump\t// in\n    tag_29:\n        /* \"#utility.yul\":1053:1119   */\n      tag_30\n        /* \"#utility.yul\":1115:1117   */\n      0x20\n        /* \"#utility.yul\":1104:1113   */\n      dup4\n        /* \"#utility.yul\":1100:1118   */\n      add\n        /* \"#utility.yul\":1091:1097   */\n      dup6\n        /* \"#utility.yul\":1053:1119   */\n      tag_12\n      jump\t// in\n    tag_30:\n        /* \"#utility.yul\":1129:1201   */\n      tag_31\n        /* \"#utility.yul\":1197:1199   */\n      0x40\n        /* \"#utility.yul\":1186:1195   */\n      dup4\n        /* \"#utility.yul\":1182:1200   */\n      add\n        /* \"#utility.yul\":1173:1179   */\n      dup5\n        /* \"#utility.yul\":1129:1201   */\n      tag_15\n      jump\t// in\n    tag_31:\n        /* \"#utility.yul\":786:1208   */\n      swap5\n      swap4\n      pop\n      pop\n      pop\n      pop\n      jump\t// out\n\n    auxdata: 0xa264697066735822122028d2f784853d4ee2a65791d3683d149ea7d0e4ac5efcb20b1006d68c1aaf008764736f6c63430008190033\n}\n",
				"bytecode": {
					"linkReferences": {},
					"object": "608060405260145f806101000a81548160ff021916908360ff16021790555060015f60016101000a81548160ff021916908315150217905550426001553480156046575f80fd5b5061014a806100545f395ff3fe608060405234801561000f575f80fd5b5060043610610029575f3560e01c80637eed01721461002d575b5f80fd5b61003561004d565b604051610044939291906100df565b60405180910390f35b5f805f80601490505f80339050828282955095509550505050909192565b5f60ff82169050919050565b6100808161006b565b82525050565b5f8115159050919050565b61009a81610086565b82525050565b5f73ffffffffffffffffffffffffffffffffffffffff82169050919050565b5f6100c9826100a0565b9050919050565b6100d9816100bf565b82525050565b5f6060820190506100f25f830186610077565b6100ff6020830185610091565b61010c60408301846100d0565b94935050505056fea264697066735822122028d2f784853d4ee2a65791d3683d149ea7d0e4ac5efcb20b1006d68c1aaf008764736f6c63430008190033",
					"opcodes": "PUSH1 0x80 PUSH1 0x40 MSTORE PUSH1 0x14 PUSH0 DUP1 PUSH2 0x100 EXP DUP2 SLOAD DUP2 PUSH1 0xFF MUL NOT AND SWAP1 DUP4 PUSH1 0xFF AND MUL OR SWAP1 SSTORE POP PUSH1 0x1 PUSH0 PUSH1 0x1 PUSH2 0x100 EXP DUP2 SLOAD DUP2 PUSH1 0xFF MUL NOT AND SWAP1 DUP4 ISZERO ISZERO MUL OR SWAP1 SSTORE POP TIMESTAMP PUSH1 0x1 SSTORE CALLVALUE DUP1 ISZERO PUSH1 0x46 JUMPI PUSH0 DUP1 REVERT JUMPDEST POP PUSH2 0x14A DUP1 PUSH2 0x54 PUSH0 CODECOPY PUSH0 RETURN INVALID PUSH1 0x80 PUSH1 0x40 MSTORE CALLVALUE DUP1 ISZERO PUSH2 0xF JUMPI PUSH0 DUP1 REVERT JUMPDEST POP PUSH1 0x4 CALLDATASIZE LT PUSH2 0x29 JUMPI PUSH0 CALLDATALOAD PUSH1 0xE0 SHR DUP1 PUSH4 0x7EED0172 EQ PUSH2 0x2D JUMPI JUMPDEST PUSH0 DUP1 REVERT JUMPDEST PUSH2 0x35 PUSH2 0x4D JUMP JUMPDEST PUSH1 0x40 MLOAD PUSH2 0x44 SWAP4 SWAP3 SWAP2 SWAP1 PUSH2 0xDF JUMP JUMPDEST PUSH1 0x40 MLOAD DUP1 SWAP2 SUB SWAP1 RETURN JUMPDEST PUSH0 DUP1 PUSH0 DUP1 PUSH1 0x14 SWAP1 POP PUSH0 DUP1 CALLER SWAP1 POP DUP3 DUP3 DUP3 SWAP6 POP SWAP6 POP SWAP6 POP POP POP POP SWAP1 SWAP2 SWAP3 JUMP JUMPDEST PUSH0 PUSH1 0xFF DUP3 AND SWAP1 POP SWAP2 SWAP1 POP JUMP JUMPDEST PUSH2 0x80 DUP2 PUSH2 0x6B JUMP JUMPDEST DUP3 MSTORE POP POP JUMP JUMPDEST PUSH0 DUP2 ISZERO ISZERO SWAP1 POP SWAP2 SWAP1 POP JUMP JUMPDEST PUSH2 0x9A DUP2 PUSH2 0x86 JUMP JUMPDEST DUP3 MSTORE POP POP JUMP JUMPDEST PUSH0 PUSH20 0xFFFFFFFFFFFFFFFFFFFFFFFFFFFFFFFFFFFFFFFF DUP3 AND SWAP1 POP SWAP2 SWAP1 POP JUMP JUMPDEST PUSH0 PUSH2 0xC9 DUP3 PUSH2 0xA0 JUMP JUMPDEST SWAP1 POP SWAP2 SWAP1 POP JUMP JUMPDEST PUSH2 0xD9 DUP2 PUSH2 0xBF JUMP JUMPDEST DUP3 MSTORE POP POP JUMP JUMPDEST PUSH0 PUSH1 0x60 DUP3 ADD SWAP1 POP PUSH2 0xF2 PUSH0 DUP4 ADD DUP7 PUSH2 0x77 JUMP JUMPDEST PUSH2 0xFF PUSH1 0x20 DUP4 ADD DUP6 PUSH2 0x91 JUMP JUMPDEST PUSH2 0x10C PUSH1 0x40 DUP4 ADD DUP5 PUSH2 0xD0 JUMP JUMPDEST SWAP5 SWAP4 POP POP POP POP JUMP INVALID LOG2 PUSH5 0x6970667358 0x22 SLT KECCAK256 0x28 0xD2 0xF7 DUP5 DUP6 RETURNDATASIZE 0x4E 0xE2 0xA6 JUMPI SWAP2 0xD3 PUSH9 0x3D149EA7D0E4AC5EFC 0xB2 SIGNEXTEND LT MOD 0xD6 DUP13 BYTE 0xAF STOP DUP8 PUSH5 0x736F6C6343 STOP ADDMOD NOT STOP CALLER "
				},
				"gasEstimates": {
					"creation": {
						"codeDepositCost": "66000",
						"executionCost": "70802",
						"totalCost": "136802"
					},
					"external": {
						"myFunc()": "624"
					}
				},
				"methodIdentifiers": {
					"myFunc()": "7eed0172"
				}
			},
			"storageLayout": {
				"storage": [
					{
						"astId": 4,
						"contract": "contracts/Variables.sol:Variables",
						"label": "number",
						"offset": 0,
						"slot": "0",
						"type": "t_uint8"
					},
					{
						"astId": 7,
						"contract": "contracts/Variables.sol:Variables",
						"label": "paused",
						"offset": 1,
						"slot": "0",
						"type": "t_bool"
					},
					{
						"astId": 11,
						"contract": "contracts/Variables.sol:Variables",
						"label": "time",
						"offset": 0,
						"slot": "1",
						"type": "t_uint256"
					}
				],
				"types": {
					"t_bool": {
						"encoding": "inplace",
						"label": "bool",
						"numberOfBytes": "1"
					},
					"t_uint256": {
						"encoding": "inplace",
						"label": "uint256",
						"numberOfBytes": "32"
					},
					"t_uint8": {
						"encoding": "inplace",
						"label": "uint8",
						"numberOfBytes": "1"
					}
				}
			},
			"userdoc": {
				"kind": "user",
				"methods": {},
				"version": 1
			}
		}
	}
}